:020000040800F2
:100000000010002045030008910300089103000838
:1000100000000000000000000000000000000000E0
:100020000000000000000000000000009103000834
:1000300000000000000000009103000851020008C9
:1000400091030008000000009103000891030008DC
:100050009103000891030008910300089103000830
:1000600000000000910300089103000891030008BC
:1000700091030008910300089103000800000000AC
:100080009103000800000000000000009103000838
:10009000000000009103000891030008910300088C
:1000A0000000000091030008000000009103000818
:1000B0000000000000000000000000000000000040
:1000C00010B5064C2378002B07D1054B002B02D02E
:1000D000044800E000BF0123237010BD0000002091
:1000E00000000000DC030008044B10B5002B03D017
:1000F0000349044800E000BF10BDC04600000000F6
:1001000004000020DC030008002243088B4274D363
:1001100003098B425FD3030A8B4244D3030B8B4208
:1001200028D3030C8B420DD3FF22090212BA030C11
:100130008B4202D31212090265D0030B8B4219D3F2
:1001400000E0090AC30B8B4201D3CB03C01A524112
:10015000830B8B4201D38B03C01A5241430B8B425A
:1001600001D34B03C01A5241030B8B4201D30B0343
:10017000C01A5241C30A8B4201D3CB02C01A52416A
:10018000830A8B4201D38B02C01A5241430A8B422D
:1001900001D34B02C01A5241030A8B4201D30B0216
:1001A000C01A5241CDD2C3098B4201D3CB01C01A30
:1001B000524183098B4201D38B01C01A524143093A
:1001C0008B4201D34B01C01A524103098B4201D328
:1001D0000B01C01A5241C3088B4201D3CB00C01A95
:1001E000524183088B4201D38B00C01A524143080D
:1001F0008B4201D34B00C01A5241411A00D2014632
:10020000524110467047FFE701B5002000F006F8A4
:1002100002BDC0460029F7D076E770477047C04658
:10022000C3680133C3607047C3680133C36070475C
:10023000054B064A5A609A6006221A601968053A08
:100240000A431A607047C04610E000E03F1F0000FC
:10025000054B10B51C68002C05D0236820001B68D6
:100260009847A468F7E710BD1C00002080232B4AA4
:100270001B035169F0B50B4353618023284C5B028B
:10028000226889B01343236080232268DB02134372
:100290002360244B009300230393234B5A6801925D
:1002A000002A01D0694691601A68002A01D16A4685
:1002B0001A6000210691079169461C48059119684A
:1002C00004AA049002925A60002900D11A60802684
:1002D0009625802776006D00BF000398C82805D1B9
:1002E0002369334215D080235B04A361C821FFF743
:1002F00091FF07980391A84205D123693B420AD098
:1003000080239B04A3612900FFF784FF079130BF7E
:10031000E3E7A661EAE7A761F5E7C04600100240FF
:1003200000080048FC0300081C0000200804000826
:10033000002210B5024B1A605A60FFF779FF10BD1A
:100340001C0000200C4885460C480D490D4A00232E
:1003500002E0D458C4500433C4188C42F9D30A4A7A
:100360000A4C002301E013600432A242FBD300F0E8
:1003700011F8FFF77BFFFEE70010002000000020CF
:1003800000000020180400080000002024000020C5
:10039000FEE7000070B500260C4D0D4C641BA41048
:1003A000A64209D1002600F019F80A4D0A4C641B38
:1003B000A410A64205D170BDB300EB589847013692
:1003C000EEE7B300EB5898470136F2E70C0400085B
:1003D0000C0400080C04000814040008F8B5C0461A
:1003E000F8BC08BC9E467047F8B5C046F8BC08BCCF
:0403F0009E4670476E
:1003F40000000000000000002902000800000000C6
:080404000000000021020008C5
:08040C00E900000831030008BB
:04041400C10000081B
:0400000508000345A7
:00000001FF
