:020000040800F2
:100000000010002059030008A5030008A5030008FC
:1000100000000000000000000000000000000000E0
:10002000000000000000000000000000A503000820
:100030000000000000000000A50300084D020008B9
:10004000A503000800000000A5030008A5030008A0
:10005000A5030008A5030008A5030008A5030008E0
:1000600000000000A5030008A5030008A503000880
:10007000A5030008A5030008A50300080000000070
:10008000A50300080000000000000000A503000810
:1000900000000000A5030008A5030008A503000850
:1000A00000000000A503000800000000A5030008F0
:1000B0000000000000000000000000000000000040
:1000C00010B5064C2378002B07D1054B002B02D02E
:1000D000044800E000BF0123237010BD0000002091
:1000E00000000000F0030008044B10B5002B03D003
:1000F0000349044800E000BF10BDC04600000000F6
:1001000004000020F0030008002243088B4274D34F
:1001100003098B425FD3030A8B4244D3030B8B4208
:1001200028D3030C8B420DD3FF22090212BA030C11
:100130008B4202D31212090265D0030B8B4219D3F2
:1001400000E0090AC30B8B4201D3CB03C01A524112
:10015000830B8B4201D38B03C01A5241430B8B425A
:1001600001D34B03C01A5241030B8B4201D30B0343
:10017000C01A5241C30A8B4201D3CB02C01A52416A
:10018000830A8B4201D38B02C01A5241430A8B422D
:1001900001D34B02C01A5241030A8B4201D30B0216
:1001A000C01A5241CDD2C3098B4201D3CB01C01A30
:1001B000524183098B4201D38B01C01A524143093A
:1001C0008B4201D34B01C01A524103098B4201D328
:1001D0000B01C01A5241C3088B4201D3CB00C01A95
:1001E000524183088B4201D38B00C01A524143080D
:1001F0008B4201D34B00C01A5241411A00D2014632
:10020000524110467047FFE701B5002000F006F8A4
:1002100002BDC0460029F7D076E770477047C04658
:10022000C3680133C3607047C3680133C36070475C
:10023000054B5A684260002A00D090601A685860E6
:10024000002A00D1186070471C000020054B10B533
:100250001C68002C05D0236820001B689847A46800
:10026000F7E710BD1C0000208022044B52001969E2
:10027000114201D0802252049A6170470008004860
:100280008022044B92001969114201D0802292040D
:100290009A6170470008004880231E4A1B03516979
:1002A00010B50B43536180221B4B52021968002486
:1002B0000A431A6080221968D2020A431A60174B57
:1002C00088B0083368460194029400930394FFF7C2
:1002D000AFFF134B04A808330594069407940493C6
:1002E000FFF7A6FF2D34FF34039BC82B01D1FFF786
:1002F000BBFF0398C821FFF78DFF079B0391A34223
:1003000001D1FFF7BDFF07982100FFF783FF079199
:1003100030BFE9E700100240000800480804000868
:100320001404000810B5FFF7B7FF00000022074BC8
:100330001A605A60064B074A5A609A6006221A6091
:100340001968053A0A431A607047C0461C0000202D
:1003500010E000E03F1F00000C4885460C480D49A6
:100360000D4A002302E0D458C4500433C4188C4210
:10037000F9D30A4A0A4C002301E013600432A24276
:10038000FBD300F011F8FFF7CDFFFEE700100020CF
:1003900000000020000000202C04000800000020C5
:1003A00024000020FEE7000070B500260C4D0D4C27
:1003B000641BA410A64209D1002600F019F80A4DCA
:1003C0000A4C641BA410A64205D170BDB300EB58C3
:1003D00098470136EEE7B300EB5898470136F2E74D
:1003E0002004000820040008200400082804000855
:1003F000F8B5C046F8BC08BC9E467047F8B5C04684
:08040000F8BC08BC9E467047E1
:1004080000000000000000002902000800000000B1
:080418000000000021020008B1
:08042000E90000082D030008AB
:04042800C100000807
:040000050800035993
:00000001FF
